:100000000C946D000C9495000C9495000C94950044
:100010000C9495000C9495000C9495000C9495000C
:100020000C9495000C9495000C9495000C949500FC
:100030000C9495000C9495000C9495000C949500EC
:100040000C94C2060C9495000C9432070C940C0787
:100050000C9495000C9495000C9495000C949500CC
:100060000C9495000C949500000021104220633000
:100070008440A550C660E770088129914AA16BB100
:100080008CC1ADD1CEE1EFF100000008000201000B
:100090000003040700000000000000000000000052
:1000A000250028002B0000000000240027002A0063
:1000B000040404040404040402020202020203030E
:1000C0000303030301020408102040800102040816
:1000D0001020010204081020980A11241FBECFEF3F
:1000E000D8E0DEBFCDBF11E0A0E0B1E0E2ECFFE17F
:1000F00002C005900D92AE36B107D9F723E0AEE607
:10010000B1E001C01D92AC30B207E1F710E0CDE6DE
:10011000D0E004C02197FE010E94030CCC36D10729
:10012000C9F70E9464070C94DF0F0C94000090E064
:10013000FC01EC53FF4F249180559F4FFC018491AB
:10014000882399F090E0880F991FFC01EA55FF4F32
:10015000A591B491FC01E456FF4F859194918FB71E
:10016000F894EC91E22BEC938FBF089590E0FC01A2
:10017000E857FF4F2491FC01EC53FF4F3491FC01F1
:10018000E055FF4FE491EE23C9F0222339F02330EC
:1001900001F1A8F4213019F1223029F1F0E0EE0F3D
:1001A000FF1FE456FF4FA591B4918FB7F894EC91DF
:1001B000611126C030953E233C938FBF08952730B0
:1001C000A9F02830C9F0243049F7809180008F7D54
:1001D00003C0809180008F7780938000DFCF84B54B
:1001E0008F7784BDDBCF84B58F7DFBCF8091B0004E
:1001F0008F778093B000D2CF8091B0008F7DF9CF00
:100200003E2BDACFEF92FF920F931F93CF939091F3
:100210000201981741F1C82F02E411E060E0F801F3
:1002200081918F010E94B600F1E006341F07B1F7FB
:1002300010E000E0EC2EF12CC701002E02C09695D4
:1002400087950A94E2F780FF07C061E0F801EE5B52
:10025000FE4F80810E94B6000F5F1F4F04301105D2
:1002600059F7C0930201CF911F910F91FF90EF902A
:1002700008953FB7F8948091C2019091C301A09175
:10028000C401B091C50126B5A89B05C02F3F19F048
:100290000196A11DB11D3FBFBA2FA92F982F882706
:1002A000BC01CD01620F711D811D911D42E0660FE1
:1002B000771F881F991F4A95D1F708958F929F92B3
:1002C000AF92BF92CF92DF92EF92FF924B015C010F
:1002D0000E9439016B017C010E9439016C197D0972
:1002E0008E099F09683E734081059105A8F321E0BE
:1002F000821A9108A108B10888EEC80E83E0D81EC2
:10030000E11CF11C81149104A104B10429F7FF90B0
:10031000EF90DF90CF90BF90AF909F908F90089517
:100320002FB7F8946091BE017091BF018091C00118
:100330009091C1012FBF0895AF92BF92CF92DF92EB
:10034000EF92FF920F931F93CF93DF936C017B018A
:100350008B01040F151FEB015E01AE18BF08C0171B
:10036000D10759F06991D601ED91FC910190F0818E
:10037000E02DC6010995892B79F7C501DF91CF9151
:100380001F910F91FF90EF90DF90CF90BF90AF90B3
:100390000895FC01538D448D252F30E0842F90E08B
:1003A000821B930B541718F081589F4F08950197A3
:1003B0000895FC01918D828D981761F0A28DAE0F8A
:1003C000BF2FB11D5D968C91928D9F5F9F77928F0D
:1003D00090E008958FEF9FEF08950F931F930E9471
:1003E00090016093E0017093E1018093E2019093AA
:1003F000E30188ED91E00E94D90197FF1DC00E94A2
:1004000090010091E0011091E1012091E201309111
:10041000E301601B710B820B930B0091DC011091C7
:10042000DD012091DE013091DF0160177107820745
:100430009307F8F28FEF9FEF1F910F910895FC0142
:10044000918D828D981731F0828DE80FF11D858D89
:1004500090E008958FEF9FEF0895FC01918D228D1C
:10046000892F90E080589F4F821B91098F779927A1
:10047000089588ED91E00E942D0221E0892B09F476
:1004800020E0822F089580E090E0892B29F00E94DF
:10049000390281110C9400000895FC01A48DA80F6D
:1004A000B92FB11DA356BF4F2C91848D90E00196BA
:1004B0008F779927848FA689B7892C93A089B189D2
:1004C0008C91837080648C93938D848D981306C077
:1004D0000288F389E02D80818F7D80830895EF92DB
:1004E000FF920F931F93CF93DF93EC0181E0888FEE
:1004F0009B8D8C8D98131AC0E889F989808185FFBE
:1005000015C09FB7F894EE89FF896083E889F9895F
:1005100080818370806480839FBF81E090E0DF9161
:10052000CF911F910F91FF90EF900895F62E0B8DB4
:1005300010E00F5F1F4F0F771127E02E8C8D8E116B
:100540000CC00FB607FCFACFE889F989808185FFD6
:10055000F5CFCE010E944D02F1CFEB8DEC0FFD2FB8
:10056000F11DE356FF4FF0829FB7F8940B8FEA8995
:10057000FB8980818062CFCFCF93DF93EC01888DA0
:100580008823B9F0AA89BB89E889F9898C9185FD0E
:1005900003C0808186FD0DC00FB607FCF7CF8C919C
:1005A00085FFF2CF808185FFEDCFCE010E944D0205
:1005B000E9CFDF91CF910895CF93CFB7F894809191
:1005C0007001811124C0EAEBF0E08491EEECF0E0E0
:1005D0009491E82FF0E0EE0FFF1FEA55FF4FA59131
:1005E000B491EC91E92321F461E08AE00E94B60025
:1005F0008AE00E9497008CB580618CBD8CB58064C8
:100600008CBD8DE00E9497008BE00E949700809146
:1006100070018F5F80937001CFBFCF91089561E02B
:10062000FC0180810C94B60020E52CBD21E02DBD9D
:1006300060E0FC0180810C94B6008EBD00000DB41A
:1006400007FEFDCF8EB50895FF920F931F93CF93B2
:10065000DF93EC01F62E042F122F0E94140385E085
:100660000E941D038F2D0E941D03802F0E941D03D9
:10067000812F0E941D03CE01DF91CF911F910F9119
:10068000FF900C940F03DF92EF92FF920F931F9352
:10069000CF93DF937C01C62FD42E152F022F0E94FB
:1006A000140382E00E941D038C2F0E941D03CD2D98
:1006B000D12F0C0F1D2F111DC017D10721F08991CB
:1006C0000E941D03F9CFC701DF91CF911F910F91B8
:1006D000FF90EF90DF900C940F030F931F93CF9335
:1006E000DF93EC01062F142F0E94140382E00E9476
:1006F0001D03802F0E941D03812F0E941D03CE0128
:10070000DF91CF911F910F910C940F03DF92EF9225
:10071000FF920F931F93CF93DF937C01C62FD42EAC
:10072000152F022F0E94140383E00E941D038C2FBB
:100730000E941D03CD2DD12F0C0F1D2F111DC01791
:10074000D10729F080E00E941D038993F8CFC701EB
:10075000DF91CF911F910F91FF90EF90DF900C945C
:100760000F031F93CF93DF93EC01162F0E94140306
:1007700083E00E941D03812F0E941D0380E00E94E0
:100780001D03182FCE010E940F03812FDF91CF91FF
:100790001F9108959F92AF92BF92CF92DF92EF92F6
:1007A000FF920F931F93CF93DF9300D000D01F923F
:1007B000CDB7DEB75C018B01000F111F000F111FB9
:1007C000F801EF5CFE4F25E0AE014F5F5F4F6181A6
:1007D0000E9486038A81C98098E0C99E6001112425
:1007E000282F30E055E0359527955A95E1F7C20E50
:1007F000D31E0D2C000CEE08FF0883FF20C092E0F2
:10080000CC0CDD1CEE1CFF1C9A95D1F78370C80E32
:10081000D11CE11CF11CFE2CED2CDC2CCC248B819A
:10082000C80ED11CE11CF11CFE2CED2CDC2CCC24C0
:100830008C81C80ED11CE11CF11C6894F7F88D81E5
:100840008F70982EE8E081E090E0E91540F1F80122
:10085000EF5CFE4F6081C5010E94B10383FF02C0BF
:100860006894F6F8C092C801D092C901E092CA011A
:10087000F092CB019092CC010F5C1E4F292D40EDE0
:1008800051E0F8016281C5010E94860320E0F80171
:1008900043816CE2C5010E94240390E080E00F9048
:1008A0000F900F900F900F90DF91CF911F910F91AC
:1008B000FF90EF90DF90CF90BF90AF909F90089502
:1008C0001F93CF93DF93EC010E94140380EA0E94F0
:1008D0001D0380E00E941D03182FCE010E940F030C
:1008E00070E060E010FD04C011FF08C061E070E03E
:1008F000CE01DF91CF911F910C94CA0385E090E067
:10090000DF91CF911F910895CF92DF92EF92FF92E6
:100910001F93CF93DF93EC01162F262F40EE6FE04D
:100920000E9424030E9490016B017C012AE0C20E08
:10093000D11CE11CF11C0E9490016C157D058E05F7
:100940009F0598F46EE0CE010E94B103807E1813DB
:10095000F2CF81E091E0892790E0DF91CF911F9164
:10096000FF90EF90DF90CF90089580E0F3CF0F934A
:100970001F93CF93DF93EC0160E80E9484048C0105
:10098000892B79F440E06AE2CE010E946D0340EFCA
:1009900069E2CE010E946D0346E868E2CE010E9442
:1009A0006D03C801DF91CF911F910F91089560E011
:1009B00087E00C94B6004F925F926F927F928F9275
:1009C0009F92AF92BF92CF92DF92EF92FF920F93DE
:1009D0001F93CF93DF93CDB7DEB763970FB6F8942D
:1009E000DEBF0FBECDBF2091FC02293008F095C0BC
:1009F0006C0186E0EDE0F1E0DE011E9601900D92C3
:100A00008A95E1F73E018EE0680E711C4E01E4E12B
:100A10008E0E911CF301E190F1903F018701000FD0
:100A2000111FF801EE0DFF1DE75CFE4FA0806A2D3F
:100A3000C6010E94B10383FD9CC0B090FC02F8E0A7
:100A4000FB1508F46AC04091F8025091F9026091D8
:100A5000FA027091FB02DB01CA018827B7FD83957A
:100A60009927AA27BB27282FDB01CA0188279927A6
:100A7000AA27B07444244A94542C642CEFE17E2EAF
:100A8000211106C044244A9437E0532E612C712C66
:100A90004421552166217721222309F441C04C834A
:100AA0005B83AB0166277727242F220F220F220FAB
:100AB000207E342F33703860232B2A83F5E056953F
:100AC0004795FA95E1F74983892B8A2B8B2BB1F156
:100AD0008B2D80648D834B2D50E060E073E0CE0160
:100AE00006960E942E0D25E02B0D0E0D1F1DF80100
:100AF000E75CFE4FAE014F5F5F4F6181C6010E9410
:100B0000430328E048E06A2DC6010E9424036A2DB1
:100B1000C6010E94B103807799F084E090E012C092
:100B20009A0153E0369527955A95E1F72983429526
:100B3000440F407E4A831C821B82C6CF8B2DCACFB6
:100B400090E080E063960FB6F894DEBF0FBECDBF95
:100B5000DF91CF911F910F91FF90EF90DF90CF9099
:100B6000BF90AF909F908F907F906F905F904F90CD
:100B700008956814790409F04DCF82E090E0E2CF47
:100B80007F928F929F92AF92BF92CF92DF92EF921D
:100B9000FF920F931F93CF93DF93CDB7DEB7A2974A
:100BA0000FB6F894DEBF0FBECDBF8C010E941403B8
:100BB00080EC0E941D03C8010E940F036AE070E0F0
:100BC00080E090E00E945E01CE0101967C018EE003
:100BD000F70111928A95E9F72EE0A70160E3C801B9
:100BE0000E9443032EE0A70160E4C8010E94430372
:100BF0002EE0A70160E5C8010E94430340E060E6E3
:100C0000C8010E946D0340E060E7C8010E946D03C7
:100C100043EA6BE2C8010E946D0324E047E660E608
:100C2000C8010E94240321E047E660E7C8010E9452
:100C300024038CE0E3E1F1E0DE011F9601900D92C8
:100C40008A95E1F74E01FFE08F0E911CB12CA12C8B
:100C500028E0722EF401E190F1904F0160E8C801A4
:100C60000E9484046C01892B09F068C0F2E0EF1641
:100C7000F10409F478C058F4E114F10409F479C0DE
:100C8000EA94EF2889F0CC24C394D12C57C0E4E037
:100C9000EE16F10409F46BC008F467C085E0E816AD
:100CA000F10489F768E101C064E091E0A916B1049C
:100CB00009F061C01E8E1D8E7C8E1B8E24E0AE015D
:100CC000455E5F4FC8010E944303EFEFAE1ABE0AB4
:100CD000F6E0AF16B10409F0BDCF18A21F8E81E077
:100CE00090E09AA389A37E018FE1E80EF11C4E01EA
:100CF00093E2890E911C98E0792EF701A190B190B2
:100D00007F0160E8C8010E9484046C01892BB1F462
:100D10001E8E1D8E7C8E1B8EA114B10489F1AA94A7
:100D2000AB2809F0B0CF64E224E0AE01455E5F4F2E
:100D3000C8010E9443038E149F04F9F6C601A296CF
:100D40000FB6F894DEBF0FBECDBFDF91CF911F91DC
:100D50000F91FF90EF90DF90CF90BF90AF909F905A
:100D60008F907F90089568E0A0CF60E19ECF64E10E
:100D70009CCF60E09ACF1B8E1C8E1E8E1D8E9ECF48
:100D800060E2D2CF1F920F920FB60F9211242F93D1
:100D90003F938F939F93AF93BF938091BE019091A8
:100DA000BF01A091C001B091C1013091BD0123E00C
:100DB000230F2D3758F50196A11DB11D2093BD01BC
:100DC0008093BE019093BF01A093C001B093C10175
:100DD0008091C2019091C301A091C401B091C5015D
:100DE0000196A11DB11D8093C2019093C301A093F0
:100DF000C401B093C501BF91AF919F918F913F9175
:100E00002F910F900FBE0F901F90189526E8230F7B
:100E10000296A11DB11DD2CF1F920F920FB60F9255
:100E200011242F933F934F935F936F937F938F93EF
:100E30009F93AF93BF93EF93FF9388ED91E00E9450
:100E40004D02FF91EF91BF91AF919F918F917F9153
:100E50006F915F914F913F912F910F900FBE0F9027
:100E60001F9018951F920F920FB60F9211242F9377
:100E70008F939F93EF93FF93E091E801F091E90145
:100E80008081E091EE01F091EF0182FD1BC0908125
:100E90008091F1018F5F8F772091F201821741F0ED
:100EA000E091F101F0E0E852FE4F958F8093F1015F
:100EB000FF91EF919F918F912F910F900FBE0F9007
:100EC0001F9018958081F4CF789484B5826084BD9A
:100ED00084B5816084BD85B5826085BD85B581603E
:100EE00085BD80916E00816080936E0010928100BC
:100EF0008091810082608093810080918100816077
:100F00008093810080918000816080938000809137
:100F1000B10084608093B1008091B00081608093C3
:100F2000B00080917A00846080937A0080917A008A
:100F3000826080937A0080917A00816080937A0049
:100F400080917A00806880937A001092C10088E1D5
:100F500099E20FB6F894A895809360000FBE909325
:100F6000600067E070E080E090E00E945E01E09148
:100F7000E801F091E90182E08083E091E401F091E1
:100F8000E5011082E091E601F091E70183E08083C2
:100F90001092F001E091EC01F091ED0186E0808388
:100FA000E091EA01F091EB01808180618083E09122
:100FB000EA01F091EB01808188608083E091EA0191
:100FC000F091EB01808180688083E091EA01F091EB
:100FD000EB0180818F7D80838AEF90E0A0E0B0E01C
:100FE0008093DC019093DD01A093DE01B093DF01DB
:100FF00081E090E00E94090C8C010E94DC0289E0F3
:10100000F80180830E949700C8010E940F0310938B
:10101000B8010093B70181E090E00E94090CEC0157
:101020000E94DC028AE088830E949700CE010E9421
:101030000F03D093B501C093B401C8010E94C0054D
:10104000CE010E94C005C8010E94B704CE010E94D3
:10105000B70460E0C8010E94840460E0CE010E94F1
:10106000840487E00E94970061E087E00E94B60058
:10107000C2E4D1E089910E949700FE01319760E0BF
:1010800080810E94B600F1E0C634DF0799F788E15D
:101090009DE00FB6F894A895809360000FBE9093E2
:1010A000600080E480937C0080917A00806480936B
:1010B0007A0080917A0086FDFCCF60917800709173
:1010C0007900072E000C880B990B611571058105BD
:1010D000910511F00E94600BF7E08F2E912CA12C4E
:1010E000B12CA5E42A2EA1E03A2E01E711E0B3E6E7
:1010F000EB2EB1E0FB2EA8950E9490016093B90100
:101100007093BA018093BB019093BC01EAE0DE2E9C
:1011100088ED91E00E942D0240970CF0FCC0A8954C
:101120008091B7019091B8010E946004892B81F5EC
:101130008091C8019091C901A091CA01B091CB01E1
:10114000803D9240A105B10519F58091D0019091A3
:10115000B601981708F096C08093B60186E00E9409
:1011600002010E94D70466E470E080E090E00E94F3
:101170005E018091D101843009F4A1C008F089C0DA
:10118000813009F494C008F48DC0823009F495C010
:101190008091B4019091B5010E946004892B09F0FF
:1011A000B7CF0E94110BA50194010E94690B4090DA
:1011B000B9015090BA016090BB017090BC01460E1D
:1011C000571E681E791E0E94900146165706680633
:1011D000790670F08091C8019091C901A091CA016F
:1011E000B091CB0181309740A105B10508F490CFB3
:1011F0000E9490016093B9017093BA018093BB0182
:101200009093BC018091CB018F938091CA018F9301
:101210008091C9018F938091C8018F931F9281E0C3
:101220008F933F922F921F930F930E943E0DC82ED3
:101230006090CC018DB79EB70A960FB6F8949EBF0A
:101240000FBE8DBF98E0961510F478E0672EC0EDC4
:10125000D1E0712C7614C9F189911F928F93FF927E
:10126000EF928C2D90E08F589E4F9F938F930E940A
:101270003E0DC80E73940F900F900F900F900F902B
:101280000F90E8CF891708F074CF8093B60187E0FC
:1012900066CF8031B1F08831B1F0883009F078CF75
:1012A00083E006C061E087E00E94B60071CF80E075
:1012B0000E9402010E94D7046BCF81E0F9CF82E047
:1012C000F7CF84E0F5CF85E0F3CF8091CC01811199
:1012D000CA948C2D90E069E671E08F589E4F0E9471
:1012E000370D81E08C0D90E06BE671E08F589E4FDA
:1012F0000E94370DC394C3944C2D50E0FA01EF586F
:10130000FE4FD0824F5F5F4F61E771E088ED91E063
:101310000E949C01FDCEA895D0E0C0E00E94ED01A6
:1013200097FDF2C0FE01E050FF4F2081022E000C1D
:10133000330B2817390799F0209781F3209100018A
:10134000022E000C330B51E040E02817390709F05A
:1013500050E0C52FD42FE2CFC1E0D0E0DFCF2197FE
:10136000D9F788ED91E00E942D020E970CF055C040
:101370008091B7019091B8010E946004892B51F5CA
:101380008091C8019091C901A091CA01B091CB018F
:10139000803D9240A105B105E9F48091D001909182
:1013A000B6019817C8F48093B60186E00E94020146
:1013B0000E94D70462E370E080E090E00E945E014A
:1013C0008091D101843019F168F48130C1F090F03E
:1013D0008230D9F0A895C5CF891790F78093B601D0
:1013E00087E0E4CF8031A9F08831A9F0883091F707
:1013F00083E006C061E087E00E94B600EBCF80E0AA
:101400000E9402010E94D704E5CF81E0F9CF82E07B
:10141000F7CF84E0F5CF85E0F3CF61E087E00E946D
:10142000B60066EAC62E61E0D62ED0E0C0E00E948B
:10143000ED0197FD65C0F60181936F012196CE30D5
:10144000D105A9F7A895A6EAB1E06FE07DE12D915D
:10145000E22FE727E295EF70F0E0EE0FFF1FE8596B
:10146000FF4F8591949134E0660F771F3A95E1F72D
:1014700086279727E92FE295EF70E227EF70F0E0DB
:10148000EE0FFF1FE859FF4F6591749154E0880FEC
:10149000991F5A95E1F768277927F1E0A23BBF072A
:1014A000B1F68091A7019091A801B0E0A0E08093EF
:1014B000F8029093F902A093FA02B093FB024091D4
:1014C000A9014093FC028091B2019091B30186176B
:1014D0009707C9F48FEF840F8830A8F450E06AEAC8
:1014E00071E080E093E00E942E0D8091A601882398
:1014F000C1F0813041F48091B4019091B50115C0E3
:10150000CD2B09F09FCFA89580E090E0892B09F4BE
:10151000F2CD0E943902882309F4EDCD0E9400002B
:10152000EACD8091B7019091B8010E94DB04EBCF26
:10153000E8EDF1E01382128288EE93E0A0E0B0E0E3
:1015400084839583A683B78383E291E0918380832C
:1015500085EC90E09587848784EC90E09787868778
:1015600080EC90E0918B808B81EC90E0938B828B70
:1015700082EC90E0958B848B86EC90E0978B868B49
:10158000118E128E138E148E08958F929F92AF92A9
:10159000BF92CF92DF92EF92FF92CF93DF93EC0155
:1015A000688179818A819B81611571058105910529
:1015B00021F464E279ED8BE597E02DE133EF41E032
:1015C00050E00E94690B49015A019B01AC01A7EA56
:1015D000B1E40E94880B6B017C01ACEEB4EFA50175
:1015E00094010E94960BC60ED71EE81EF91EF7FE48
:1015F00006C081E0C81AD108E10880E8F80AC8826C
:10160000D982EA82FB82C701B6019F77DF91CF9131
:10161000FF90EF90DF90CF90BF90AF909F908F9012
:1016200008958F929F92AF92BF92CF92DF92EF92E6
:10163000FF926091030170910401809105019091E6
:101640000601611571058105910521F464E279EDCA
:101650008BE597E02DE133EF41E050E00E94690B0C
:1016600049015A019B01AC01A7EAB1E40E94880B31
:101670006B017C01ACEEB4EFA50194010E94960BC6
:10168000C60ED71EE81EF91EF7FE06C081E0C81A76
:10169000D108E10880E8F80AC0920301D092040161
:1016A000E0920501F0920601C701B6019F77FF9015
:1016B000EF90DF90CF90BF90AF909F908F90089564
:1016C00060930301709304018093050190930601D8
:1016D0000895052E97FB1EF400940E94800B57FD81
:1016E00007D00E94D20B07FC03D04EF40C94800B61
:1016F00050954095309521953F4F4F4F5F4F08953E
:1017000090958095709561957F4F8F4F9F4F08956D
:101710000E94F40BA59F900DB49F900DA49F800D87
:10172000911D11240895B7FF0C94880B0E94880B1B
:10173000821B930B08952F923F924F925F926F926C
:101740007F928F929F92AF92BF92CF92DF92EF9251
:10175000FF920F931F93CF93DF93CDB7DEB7CA1BD2
:10176000DB0B0FB6F894DEBF0FBECDBF09942A88FD
:10177000398848885F846E847D848C849B84AA84A5
:10178000B984C884DF80EE80FD800C811B81AA8132
:10179000B981CE0FD11D0FB6F894DEBF0FBECDBFFD
:1017A000ED010895A1E21A2EAA1BBB1BFD010DC07D
:1017B000AA1FBB1FEE1FFF1FA217B307E407F50701
:1017C00020F0A21BB30BE40BF50B661F771F881FDD
:1017D000991F1A9469F760957095809590959B0173
:1017E000AC01BD01CF010895A29FB001B39FC0011C
:1017F000A39F700D811D1124911DB29F700D811D3D
:101800001124911D0895EE0FFF1F0590F491E02D16
:1018100009940F931F93CF93DF938230910510F4B7
:1018200082E090E0E0910A03F0910B0330E020E0C9
:10183000B0E0A0E0309799F42115310509F44AC0D1
:10184000281B390B24303105D8F58A819B8161151D
:10185000710589F1FB0193838283FE0111C04081F0
:1018600051810281138148175907E0F04817590741
:1018700099F4109761F012960C93129713961C939B
:101880003296CF01DF91CF911F910F910895009370
:101890000A0310930B03F4CF2115310551F04217C1
:1018A000530738F0A901DB019A01BD01DF01F801FE
:1018B000C1CFEF01F9CF90930B0380930A03CDCFF3
:1018C000FE01E20FF31F8193919322503109398376
:1018D0002883D7CF2091080330910903232B41F4AB
:1018E0002091090130910A013093090320930803E4
:1018F00020910701309108012115310541F42DB7E0
:101900003EB740910B0150910C01241B350BE09127
:101910000803F0910903E217F307A0F42E1B3F0B15
:101920002817390778F0AC014E5F5F4F2417350751
:1019300048F04E0F5F1F50930903409308038193B3
:1019400091939FCFF0E0E0E09CCFCF93DF9300979F
:10195000E9F0FC01329713821282A0910A03B09140
:101960000B03ED0130E020E01097A1F420813181DC
:10197000820F931F2091080330910903281739071C
:1019800009F061C0F0930903E0930803DF91CF9160
:101990000895EA01CE17DF07E8F54A815B819E01D1
:1019A00041155105B1F7E901FB83EA83499159914A
:1019B000C40FD51FEC17FD0761F480819181029659
:1019C000840F951FE90199838883828193819B838A
:1019D0008A83F0E0E0E012968D919C911397009736
:1019E000B9F52D913C911197CD010296820F931F6D
:1019F00020910803309109032817390739F63097E9
:101A000051F510920B0310920A03B0930903A093AF
:101A10000803BCCFD383C28340815181840F951FBB
:101A2000C817D90761F44E5F5F4F88819981480FCD
:101A3000591F518340838A819B819383828321151F
:101A4000310509F0B0CFF0930B03E0930A039ECF6A
:101A5000FD01DC01C0CF13821282D7CFFB01DC0174
:101A600002C001900D9241505040D8F70895FB01FB
:101A7000DC0101900D920020E1F70895AEE0B0E0A6
:101A8000E4E4FDE00C94A90B0D891E8986E08C83AB
:101A90001A8309838FEF9FE79E838D83AE01475E94
:101AA0005F4F6F89788DCE0101960E94610D2F8165
:101AB0003885020F131FF80110822E96E4E00C9473
:101AC000C50BABE0B0E0E7E6FDE00C949B0B7C01BE
:101AD0003B018A01FC0117821682838181FFC8C104
:101AE000CE0101965C01F7019381F30193FD85918D
:101AF00093FF81913F01882309F453C1853239F462
:101B000093FD859193FF81913F01853229F4B701BF
:101B100090E00E94510FE7CF912C212C312CFFE156
:101B2000F31538F08B3211F190F4803209F18332E1
:101B300029F137FC3CC020ED280F2A3050F536FE45
:101B400020C08AE0989E200D1124922E06C08D326E
:101B500091F0803371F7689430F8F30193FD85912B
:101B600093FF81913F018111DACF21C0689431F850
:101B7000689432F8F2CF689433F8EFCF689434F871
:101B8000ECCFEAE02E9E200D1124222E689435F829
:101B9000E4CF8E3229F436FC04C1689436F8DDCFE8
:101BA0008C3619F4689437F8D8CF8836B1F2982F6C
:101BB0009F7D95549330E0F08336A1F18337C1F1D6
:101BC000833509F063C02801F2E04F0E511CF80183
:101BD000C080D180692D70E036FC02C06FEF7FEFCE
:101BE000C6010E943B0F4C01689437F882010AC07D
:101BF0000C5F1F4FFFE3F98388248394912C6501C8
:101C0000E89437F833FE2DC0522C8114910471F5FD
:101C1000552009F468CFB70180E290E00E94510F8F
:101C20005A94F6CFF801808189830E5F1F4FE4CF6D
:101C30002801F2E04F0E511CF801C080D180692DBF
:101C400070E036FC02C06FEF7FEFC6010E94460FC6
:101C50004C018201D5CFB70180E290E00E94510F84
:101C60002A942814190409F0B0F7CECFF60137FCF6
:101C7000859137FE81916F01B70190E00E94510F6D
:101C800051105A94F1E08F1A9108BFCF843619F0A1
:101C9000893609F077C0F80137FE6BC06081718129
:101CA000828193810C5F1F4FF32DFF763F2E97FFAC
:101CB00009C090958095709561957F4F8F4F9F4F8C
:101CC000689437F82AE030E0A5010E94810FC82E01
:101CD000CA188C2C432C36FE0CC0E89440F8C9146A
:101CE00040F434FE05C032FC03C0F32DFE7E4F2EBF
:101CF000892C44FE95C0FE01EC0DF11D80818033DE
:101D000009F087C0242D297E422E842D8870582EFC
:101D100043FC95C040FE8FC09C2C821418F42C0C00
:101D2000922C981844FE91C0B70180E390E00E9485
:101D3000510F42FE09C088E790E041FE02C088E5ED
:101D400090E0B7010E94510FC91408F48AC0CA94E8
:101D5000D12C9FEFC91AD90ACA0CDB1CF60182915B
:101D60006F01B70190E00E94510FAC14BD04B1F7B0
:101D70004FCF60817181072E000C880B990B0E5F8D
:101D80001F4F92CFD32CE894D4F82AE030E0853767
:101D900039F1232D297FD22E8F3601F148F4883571
:101DA000A9F0F701868197812B96E2E10C94B70B9D
:101DB000803749F08837A9F7D4FE02C06894D2F87A
:101DC00020E130E00DC06894D4F8F6CF34FE03C0B3
:101DD000822F8660D82E20E132E002C028E030E079
:101DE000F801D7FE0FC060817181828193810C5F01
:101DF0001F4FA5010E94810FC82ECA183D2CE894E0
:101E000037F867CF6081718190E080E00E5F1F4FEF
:101E1000F0CF42FC02C0839478CF8394839475CF33
:101E2000842D867809F471CFF6CFB70180E290E077
:101E30000E94510F83948214C0F3512C73CF522C03
:101E40005818821408F46ECFF8CF842D867809F4E0
:101E50007BCF8BE241FE80E247FC8DE2B70190E050
:101E600071CFB70180E390E00E94510F9A946CCF3C
:101E70008FEF9FEF99CFFC010590615070400110EA
:101E8000D8F7809590958E0F9F1F0895FC016150A3
:101E9000704001900110D8F7809590958E0F9F1F8C
:101EA00008950F931F93CF93DF93182F092FEB0102
:101EB0008B8181FD09C01FEF0FEF812F902FDF91E4
:101EC000CF911F910F91089582FF14C02E813F8101
:101ED0008C819D81281739073CF4E881F981CF0175
:101EE00001969983888310838E819F8101969F83B9
:101EF0008E83E3CFE885F985812F0995892BA1F39E
:101F0000DACFFA01AA27283051F1203181F1E89483
:101F10006F936E7F6E5F7F4F8F4F9F4FAF4FB1E0DC
:101F20003ED0B4E03CD0670F781F891F9A1FA11DD7
:101F3000680F791F8A1F911DA11D6A0F711D811DD8
:101F4000911DA11D20D009F468943F912AE0269F9D
:101F500011243019305D3193DEF6CF010895462FFC
:101F60004770405D4193B3E00FD0C9F7F6CF462FDD
:101F70004F70405D4A3318F0495D31FD4052419346
:101F800002D0A9F7EACFB4E0A69597958795779503
:101F90006795BA95C9F700976105710508959B018A
:101FA000AC010A2E06945795479537952795BA9513
:101FB000C9F7620F731F841F951FA01D0895F89421
:021FC000FFCF51
:101FC2004040630100000000000C0380000000019B
:101FD20000020000000100020003000400050000EE
:101FE2000000006F029C01C901BC022D02D9011F31
:101FF20002606166017071760230313640414650AE
:1020020051560405067B22627573223A2531642CEF
:10201200226964223A253034582C22646174612288
:0E2022003A5B00253032582C005D007D000036
:00000001FF
