:100000000C945D000C9485000C9485000C94850084
:100010000C9485000C9485000C9485000C9485004C
:100020000C9485000C9485000C9485000C9485003C
:100030000C9485000C9485000C9485000C9485002C
:100040000C9437070C9485000C9405070C94DF067C
:100050000C9485000C9485000C9485000C9485000C
:100060000C9485000C94850000000008000201003B
:100070000003040700000000000000000000000072
:10008000250028002B0000000000240027002A0083
:10009000040404040404040402020202020203032E
:1000A0000303030301020408102040800102040836
:1000B0001020010204081020810711241FBECFEF79
:1000C000D8E0DEBFCDBF22E0A0E5B1E001C01D92C7
:1000D000A435B207E1F711E0A0E0B1E0E6E7FBE10B
:1000E00002C005900D92A035B107D9F710E0CDE51B
:1000F000D0E004C02197FE010E94E409CC35D1076D
:10010000C9F70E94AF070C94B90D0C94000090E061
:10011000FC01EC55FF4F249180579F4FFC018491C7
:10012000882399F090E0880F991FFC01EA57FF4F50
:10013000A591B491FC01E458FF4F859194918FB73C
:10014000F894EC91E22BEC938FBF0895AF92BF929D
:10015000CF92DF92EF92FF920F931F93CF93DF9393
:100160006C017B018B01040F151FEB015E01AE18C2
:10017000BF08C017D10759F06991D601ED91FC91E4
:100180000190F081E02DC6010995892B79F7C50111
:10019000DF91CF911F910F91FF90EF90DF90CF9063
:1001A000BF90AF900895FC01538D448D252F30E012
:1001B000842F90E0821B930B541710F0CF96089574
:1001C00001970895FC01918D828D981761F0A28DA1
:1001D000AE0FBF2FB11D5D968C91928D9F5F9F7367
:1001E000928F90E008958FEF9FEF0895FC01918D1D
:1001F000828D981731F0828DE80FF11D858D90E08A
:1002000008958FEF9FEF0895FC01918D228D892F26
:1002100090E0805C9F4F821B91098F73992708950E
:100220008EEA91E00E94040121E0892B09F420E08C
:10023000822F089580E090E0892B29F00E94100120
:1002400081110C9400000895FC01A48DA80FB92F12
:10025000B11DA35ABF4F2C91848D90E001968F73EE
:100260009927848FA689B7892C93A089B1898C910D
:10027000837080648C93938D848D981306C002885C
:10028000F389E02D80818F7D80830895EF92FF9226
:100290000F931F93CF93DF93EC0181E0888F9B8DA9
:1002A0008C8D98131AC0E889F989808185FF15C063
:1002B0009FB7F894EE89FF896083E889F989808186
:1002C0008370806480839FBF81E090E0DF91CF9155
:1002D0001F910F91FF90EF900895F62E0B8D10E077
:1002E0000F5F1F4F0F731127E02E8C8D8E110CC0E6
:1002F0000FB607FCFACFE889F989808185FFF5CF31
:10030000CE010E942401F1CFEB8DEC0FFD2FF11DEA
:10031000E35AFF4FF0829FB7F8940B8FEA89FB896D
:1003200080818062CFCFCF93DF93EC01888D8823CB
:10033000B9F0AA89BB89E889F9898C9185FD03C048
:10034000808186FD0DC00FB607FCF7CF8C9185FF2D
:10035000F2CF808185FFEDCFCE010E942401E9CF4D
:10036000DF91CF91089590E0FC01E859FF4F24916F
:10037000FC01EC55FF4F3491FC01E057FF4FE49135
:10038000EE23C9F0222339F0233001F1A8F4213003
:1003900019F1223029F1F0E0EE0FFF1FE458FF4F72
:1003A000A591B4918FB7F894EC91611126C0309566
:1003B0003E233C938FBF08952730A9F02830C9F021
:1003C000243049F7809180008F7D03C080918000A8
:1003D0008F7780938000DFCF84B58F7784BDDBCFAC
:1003E00084B58F7DFBCF8091B0008F778093B00074
:1003F000D2CF8091B0008F7DF9CF3E2BDACF0F9313
:100400001F93CF93DF938C0160E087E00E94B301DC
:1004100080910001909101018017910761F160E0E6
:1004200084E00E94B30160E085E00E94B30160E0D7
:1004300086E00E94B30160E080E00E94B301D0E05A
:10044000C0E0C8010C2E02C0969587950A94E2F789
:1004500080FF09C0FE01EE0FFF1FE55DFE4F61E06A
:1004600080810E94B3012196C430D10551F71093C9
:10047000010100930001DF91CF911F910F91089529
:100480003FB7F8948091560190915701A09158017F
:10049000B091590126B5A89B05C02F3F19F00196D0
:1004A000A11DB11D3FBFBA2FA92F982F8827BC01CE
:1004B000CD01620F711D811D911D42E0660F771FF6
:1004C000881F991F4A95D1F708958F929F92AF92F6
:1004D000BF92CF92DF92EF92FF924B015C010E949C
:1004E00040026B017C010E9440026C197D098E095B
:1004F0009F09683E734081059105A8F321E0821AA7
:100500009108A108B10888EEC80E83E0D81EE11C4E
:10051000F11C81149104A104B10429F7FF90EF901C
:10052000DF90CF90BF90AF909F908F9008952FB79E
:10053000F89460915201709153018091540190910F
:1005400055012FBF0895CF93CFB7F89480915001F4
:10055000811124C0EAE9F0E08491EEEAF0E09491A0
:10056000E82FF0E0EE0FFF1FEA57FF4FA591B4917F
:10057000EC91E92321F461E08AE00E94B3018AE072
:100580000E9487008CB580618CBD8CB580648CBD69
:100590008DE00E9487008BE00E94870080915001CF
:1005A0008F5F80935001CFBFCF91089561E0FC0130
:1005B00080810C94B30120E52CBD21E02DBD60E0CD
:1005C000FC0180810C94B3018EBD00000DB407FEC8
:1005D000FDCF8EB50895FF920F931F93CF93DF93B6
:1005E000EC01F62E042F122F0E94DB0285E00E9400
:1005F000E4028F2D0E94E402802F0E94E402812FEA
:100600000E94E402CE01DF91CF911F910F91FF90E4
:100610000C94D602DF92EF92FF920F931F93CF9329
:10062000DF937C01C62FD42E152F022F0E94DB02F0
:1006300082E00E94E4028C2F0E94E402CD2DD12F93
:100640000C0F1D2F111DC017D10721F089910E9499
:10065000E402F9CFC701DF91CF911F910F91FF9075
:10066000EF90DF900C94D6020F931F93CF93DF93FC
:10067000EC01062F142F0E94DB0282E00E94E402AC
:10068000802F0E94E402812F0E94E402CE01DF91BC
:10069000CF911F910F910C94D602DF92EF92FF92AF
:1006A0000F931F93CF93DF937C01C62FD42E152F6A
:1006B000022F0E94DB0283E00E94E4028C2F0E9442
:1006C000E402CD2DD12F0C0F1D2F111DC017D10706
:1006D00029F080E00E94E4028993F8CFC701DF91FE
:1006E000CF911F910F91FF90EF90DF900C94D60265
:1006F0001F93CF93DF93EC01162F0E94DB0283E060
:100700000E94E402812F0E94E40280E00E94E40241
:10071000182FCE010E94D602812FDF91CF911F9119
:1007200008959F92AF92BF92CF92DF92EF92FF9285
:100730000F931F93CF93DF9300D000D01F92CDB7BC
:10074000DEB75C018B01000F111F000F111FF801B4
:10075000E65EFE4F25E0AE014F5F5F4F61810E9474
:100760004D038A81C98098E0C99E60011124282F19
:1007700030E055E0359527955A95E1F7C20ED31E26
:100780000D2C000CEE08FF0883FF20C092E0CC0C7B
:10079000DD1CEE1CFF1C9A95D1F78370C80ED11C8E
:1007A000E11CF11CFE2CED2CDC2CCC248B81C80E22
:1007B000D11CE11CF11CFE2CED2CDC2CCC248C81FA
:1007C000C80ED11CE11CF11C6894F7F88D818F7064
:1007D000982EE8E081E090E0E91540F1F801E65E4E
:1007E000FE4F6081C5010E94780383FF02C06894B8
:1007F000F6F8C0928001D0928101E0928201F092DD
:10080000830190928401065E1E4F292D48E851E035
:10081000F8016281C5010E944D0320E0F801438187
:100820006CE2C5010E94EB0290E080E00F900F9017
:100830000F900F900F90DF91CF911F910F91FF902C
:10084000EF90DF90CF90BF90AF909F9008951F934F
:10085000CF93DF93EC010E94DB0280EA0E94E40266
:1008600080E00E94E402182FCE010E94D60270E0C0
:1008700060E010FD04C011FF08C061E070E0CE012F
:10088000DF91CF911F910C94910385E090E0DF916F
:10089000CF911F910895CF92DF92EF92FF921F9315
:1008A000CF93DF93EC01162F262F40EE6FE00E94CE
:1008B000EB020E9497026B017C012AE0C20ED11C60
:1008C000E11CF11C0E9497026C157D058E059F05A9
:1008D00098F46EE0CE010E947803807E1813F2CF68
:1008E00081E091E0892790E0DF91CF911F91FF9007
:1008F000EF90DF90CF90089580E0F3CF0F931F9398
:10090000CF93DF93EC0160E80E944B048C01892BAC
:1009100079F440E06AE2CE010E94340340E969E2E2
:10092000CE010E94340342E868E2CE010E94340303
:10093000C801DF91CF911F910F910895EF92FF921F
:100940001F93CF93DF93909183019F9390918201A6
:100950009F93909181019F93909180019F93282F65
:10096000082E000C330B3F938F9383E491E09F9309
:100970008F9380E991E09F938F930E94180B182F1B
:100980008DB79EB70A960FB6F8949EBF0FBE8DBF67
:10099000C0E8D1E08AE4E82E81E0F82ECE0180584C
:1009A0009140219620918401412F50E0281719068B
:1009B000A1F09CF08F811F928F93FF92EF9240578E
:1009C0005E4F5F934F930E94180B180F0F900F907C
:1009D0000F900F900F900F90E1CFFA01E057FE4F6C
:1009E0008AE080834F5F5F4F60E971E08EEA91E0BB
:1009F000DF91CF911F91FF90EF900C94A6004F9242
:100A00005F926F927F928F929F92AF92BF92CF929E
:100A1000DF92EF92FF920F931F93CF93DF93CDB7A7
:100A2000DEB763970FB6F894DEBF0FBECDBF6C0183
:100A300086E0E8E0F1E0DE011E9601900D928A95D5
:100A4000E1F73E018EE0680E711C4E01E4E18E0E6E
:100A5000911CF301E190F1903F018701000F111FFC
:100A6000F801EE0DFF1DEE5DFE4FA0806A2DC60160
:100A70000E94780383FD9AC0B0907401F8E0FB15E2
:100A800008F46AC08091700190917101A091720187
:100A9000B0917301AC01BD01442777FD4395552703
:100AA00066277727242FAC01BD01442755276627E9
:100AB000707444244A94542C642CFFE17F2E21113D
:100AC00006C044244A94E7E05E2E612C712C8421F8
:100AD0009521A621B721222309F441C08C839B8351
:100AE000CD01AA27BB27282F220F220F220F207EFD
:100AF000382F33703860232B2A8335E096958795FD
:100B00003A95E1F789838B2D452B462B472B09F02E
:100B100080648D834B2D50E068E771E0CE0106962E
:100B20000E940F0B25E02B0D0E0D1F1DF801EE5D31
:100B3000FE4FAE014F5F5F4F6181C6010E940A0305
:100B400028E048E06A2DC6010E94EB026A2DC6012A
:100B50000E947803807789F084E090E010C09C01C7
:100B600093E0369527959A95E1F729838295880F2A
:100B7000807E8A831C821B82C6CF90E080E06396D1
:100B80000FB6F894DEBF0FBECDBFDF91CF911F919E
:100B90000F91FF90EF90DF90CF90BF90AF909F901C
:100BA0008F907F906F905F904F90089568147904B4
:100BB00009F04FCF82E090E0E2CF7F928F929F9238
:100BC000AF92BF92CF92DF92EF92FF920F931F935B
:100BD000CF93DF93CDB7DEB7A2970FB6F894DEBF01
:100BE0000FBECDBF8C010E94DB0280EC0E94E402AC
:100BF000C8010E94D6026AE070E080E090E00E94A6
:100C00006502CE0101967C018EE0F70111928A9572
:100C1000E9F72EE0A70160E3C8010E940A032EE075
:100C2000A70160E4C8010E940A032EE0A70160E565
:100C3000C8010E940A0340E060E6C8010E94340334
:100C400040E060E7C8010E94340343EA6BE2C80158
:100C50000E94340324E047E660E6C8010E94EB02EC
:100C600021E047E660E7C8010E94EB028CE0EEE07D
:100C7000F1E0DE011F9601900D928A95E1F74E0199
:100C8000FFE08F0E911CB12CA12C28E0722EF401F4
:100C9000E190F1904F0160E8C8010E944B046C01A3
:100CA000892B09F068C0F2E0EF16F10409F478C06E
:100CB00058F4E114F10409F479C0EA94EF2889F0BA
:100CC000CC24C394D12C57C0E4E0EE16F10409F40F
:100CD0006BC008F467C085E0E816F10489F768E1A5
:100CE00001C064E091E0A916B10409F061C01E8E54
:100CF0001D8E7C8E1B8E24E0AE01455E5F4FC801C9
:100D00000E940A03EFEFAE1ABE0AF6E0AF16B10476
:100D100009F0BDCF18A21F8E81E090E09AA389A3AD
:100D20007E018FE1E80EF11C4E0193E2890E911CC9
:100D300098E0792EF701A190B1907F0160E8C80199
:100D40000E944B046C01892BB1F41E8E1D8E7C8E8B
:100D50001B8EA114B10489F1AA94AB2809F0B0CF7D
:100D600064E224E0AE01455E5F4FC8010E940A03C1
:100D70008E149F04F9F6C601A2960FB6F894DEBF52
:100D80000FBECDBFDF91CF911F910F91FF90EF90DC
:100D9000DF90CF90BF90AF909F908F907F900895FD
:100DA00068E0A0CF60E19ECF64E19CCF60E09ACF85
:100DB0001B8E1C8E1E8E1D8E9ECF60E2D2CF1F9288
:100DC0000F920FB60F9211242F933F934F935F937F
:100DD0006F937F938F939F93AF93BF93EF93FF9303
:100DE0008EEA91E00E942401FF91EF91BF91AF91B3
:100DF0009F918F917F916F915F914F913F912F9133
:100E00000F900FBE0F901F9018951F920F920FB664
:100E10000F9211242F938F939F93EF93FF93E09161
:100E2000BE01F091BF018081E091C401F091C50144
:100E300082FD1BC090818091C7018F5F8F732091CD
:100E4000C801821741F0E091C701F0E0E255FE4F82
:100E5000958F8093C701FF91EF919F918F912F9173
:100E60000F900FBE0F901F9018958081F4CF1F92A6
:100E70000F920FB60F9211242F933F938F939F934E
:100E8000AF93BF938091520190915301A09154016F
:100E9000B09155013091510123E0230F2D3758F5C2
:100EA0000196A11DB11D2093510180935201909391
:100EB0005301A0935401B093550180915601909134
:100EC0005701A0915801B09159010196A11DB11D82
:100ED0008093560190935701A0935801B093590104
:100EE000BF91AF919F918F913F912F910F900FBE26
:100EF0000F901F90189526E8230F0296A11DB11D93
:100F0000D2CFEEEAF1E01382128288EE93E0A0E005
:100F1000B0E084839583A683B78385E391E09183D2
:100F2000808385EC90E09587848784EC90E09787B8
:100F3000868780EC90E0918B808B81EC90E0938BA6
:100F4000828B82EC90E0958B848B86EC90E0978B83
:100F5000868B118E128E138E148E0C9497027894B9
:100F600084B5826084BD84B5816084BD85B58260AE
:100F700085BD85B5816085BD80916E00816080935F
:100F80006E001092810080918100826080938100C8
:100F900080918100816080938100809180008160D8
:100FA000809380008091B10084608093B100809133
:100FB000B00081608093B00080917A00846080935B
:100FC0007A0080917A00826080937A0080917A0022
:100FD000816080937A0080917A00806880937A00A3
:100FE0001092C10088E199E20FB6F894A895809319
:100FF00060000FBE9093600064E670E080E090E0D7
:101000000E946502E091BE01F091BF0182E0808301
:10101000E091BA01F091BB011082E091BC01F09126
:10102000BD0180E180831092C601E091C201F09180
:10103000C30186E08083E091C001F091C10180810D
:1010400080618083E091C001F091C101808188605E
:101050008083E091C001F091C1018081806880832C
:10106000E091C001F091C10180818F7D808381E09A
:1010700090E00E94EA098C010E94A30289E0F80135
:1010800080830E948700C8010E94D60210936B01E2
:1010900000936A0181E090E00E94EA09EC010E945D
:1010A000A3028AE088830E948700CE010E94D602B4
:1010B000D0936D01C0936C01C8010E94DD05CE0183
:1010C0000E94DD05C8010E947E04CE010E947E04BC
:1010D00060E0C8010E944B0460E0CE010E944B0416
:1010E00087E00E94870061E087E00E94B301CBE2C5
:1010F000D1E003E311E0888122960E948700FE017F
:10110000329760E080810E94B3010C171D0799F7A8
:1011100088E19CE00FB6F894A895809360000FBE1C
:101120009093600080E1782E90E8A92E91E0B92E8E
:1011300026E6822E21E0922E00E711E03CE0632EAD
:101140004AE5E42E41E0F42E50E0C52E50E0D52EC5
:10115000A8958EEA91E00E9404010C970CF07BC0E8
:10116000A89580916C0190916D010E942704892BB4
:1011700019F483E40E949E0480916A0190916B01AE
:101180000E942704892BA1F5809180019091810113
:10119000A0918201B0918301803D9240A105B105EB
:1011A00009F055C0C0918801D0E0D0936901C09387
:1011B0006801809189018430B9F100F5813061F1D5
:1011C00030F1823071F180916601909167018C1746
:1011D0009D079CF5D0936701C093660186E090E07F
:1011E0000E94FF0164E670E080E090E00E946502EA
:1011F000F501272D11922A95E9F7ABCF8031B9F08F
:101200008831C1F08830F9F683E090E007C061E0F2
:1012100087E00E94B301D7CF90E080E00E94FF01F9
:10122000D2CF81E090E0FACF82E090E0F7CF84E087
:1012300090E0F4CF85E090E0F1CFC817D907C4F66D
:10124000D0936701C093660187E090E0C9CF82E444
:101250000E949E04CDCFCAE5D1E00E949702609320
:10126000B6017093B7018093B8019093B9018EEAEB
:1012700091E00E94E20097FF6AC00E9497022091CD
:10128000B6013091B7014091B8015091B901621B8C
:10129000730B840B950B2091B2013091B3014091F7
:1012A000B4015091B5016217730784079507F8F2EE
:1012B00080915B0190915C01B0E0A0E080937001AF
:1012C00090937101A0937201B0937301C0915D017D
:1012D000C09374014C2F50E06EE571E088E791E017
:1012E0000E940F0B80915A01833401F1843439F14B
:1012F000823441F580916A0190916B01C930E0F030
:10130000F801272D11922A95E9F7F701262D119260
:101310002A95E9F7C114D10409F41ACF0E941001EB
:10132000882309F415CF0E94000012CFC93040F77E
:1013300080916C0190916D010E94FF04E1CF0C94AB
:101340000000DECF8EEA91E00E949301D9CF89930D
:101350008C169D0609F081CFABCF2F923F924F9212
:101360005F926F927F928F929F92AF92BF92CF9235
:10137000DF92EF92FF920F931F93CF93DF93CDB73E
:10138000DEB7CA1BDB0B0FB6F894DEBF0FBECDBFB6
:1013900009942A88398848885F846E847D848C8487
:1013A0009B84AA84B984C884DF80EE80FD800C8190
:1013B0001B81AA81B981CE0FD11D0FB6F894DEBF73
:1013C0000FBECDBFED010895EE0FFF1F0590F49104
:1013D000E02D09940F931F93CF93DF9382309105F3
:1013E00010F482E090E0E0915202F091530230E07C
:1013F00020E0B0E0A0E0309799F42115310509F420
:101400004AC0281B390B24303105D8F58A819B81CD
:101410006115710589F1FB0193838283FE0111C07F
:10142000408151810281138148175907E0F0481724
:10143000590799F4109761F012960C93129713962E
:101440001C933296CF01DF91CF911F910F91089598
:101450000093520210935302F4CF2115310551F03D
:101460004217530738F0A901DB019A01BD01DF01E2
:10147000F801C1CFEF01F9CF90935302809352024C
:10148000CDCFFE01E20FF31F8193919322503109DA
:1014900039832883D7CF2091500230915102232BDA
:1014A00041F42091040130910501309351022093C1
:1014B000500220910201309103012115310541F4C0
:1014C0002DB73EB74091060150910701241B350B03
:1014D000E0915002F0915102E217F307A0F42E1BA5
:1014E0003F0B2817390778F0AC014E5F5F4F241788
:1014F000350748F04E0F5F1F509351024093500242
:10150000819391939FCFF0E0E0E09CCFCF93DF9366
:101510000097E9F0FC01329713821282A0915202E7
:10152000B0915302ED0130E020E01097A1F420814A
:101530003181820F931F2091500230915102281760
:10154000390709F061C0F0935102E0935002DF9136
:10155000CF910895EA01CE17DF07E8F54A815B8154
:101560009E0141155105B1F7E901FB83EA834991D9
:101570005991C40FD51FEC17FD0761F4808191814B
:101580000296840F951FE901998388838281938154
:101590009B838A83F0E0E0E012968D919C911397F3
:1015A0000097B9F52D913C911197CD010296820FCC
:1015B000931F20915002309151022817390739F6B4
:1015C000309751F51092530210925202B09351028B
:1015D000A0935002BCCFD383C28340815181840F3A
:1015E000951FC817D90761F44E5F5F4F88819981B5
:1015F000480F591F518340838A819B819383828343
:101600002115310509F0B0CFF0935302E093520257
:101610009ECFFD01DC01C0CF13821282D7CFFB0128
:10162000DC0102C001900D9241505040D8F708955E
:10163000AEE0B0E0EEE1FBE00C94BB090D891E8941
:1016400086E08C831A8309838FEF9FE79E838D83C7
:10165000AE01475E5F4F6F89788DCE0101960E9483
:101660003B0B2F813885020F131FF80110822E9635
:10167000E4E00C94D709ABE0B0E0E1E4FBE00C94CB
:10168000AD097C013B018A01FC011782168283812E
:1016900081FFC8C1CE0101965C01F7019381F3017E
:1016A00093FD859193FF81913F01882309F453C1F4
:1016B000853239F493FD859193FF81913F01853205
:1016C00029F4B70190E00E942B0DE7CF912C212C3B
:1016D000312CFFE1F31538F08B3211F190F48032A8
:1016E00009F1833229F137FC3CC020ED280F2A3064
:1016F00050F536FE20C08AE0989E200D1124922ECF
:1017000006C08D3291F0803371F7689430F8F301A0
:1017100093FD859193FF81913F018111DACF21C023
:10172000689431F8689432F8F2CF689433F8EFCFC8
:10173000689434F8ECCFEAE02E9E200D1124222E7E
:10174000689435F8E4CF8E3229F436FC04C16894ED
:1017500036F8DDCF8C3619F4689437F8D8CF883650
:10176000B1F2982F9F7D95549330E0F08336A1F12C
:101770008337C1F1833509F063C02801F2E04F0ED1
:10178000511CF801C080D180692D70E036FC02C088
:101790006FEF7FEFC6010E94150D4C01689437F87A
:1017A00082010AC00C5F1F4FFFE3F98388248394F2
:1017B000912C6501E89437F833FE2DC0522C81142A
:1017C000910471F5552009F468CFB70180E290E0EB
:1017D0000E942B0D5A94F6CFF801808189830E5F09
:1017E0001F4FE4CF2801F2E04F0E511CF801C080DA
:1017F000D180692D70E036FC02C06FEF7FEFC6012B
:101800000E94200D4C018201D5CFB70180E290E00B
:101810000E942B0D2A942814190409F0B0F7CECF9A
:10182000F60137FC859137FE81916F01B70190E099
:101830000E942B0D51105A94F1E08F1A9108BFCFDE
:10184000843619F0893609F077C0F80137FE6BC08D
:1018500060817181828193810C5F1F4FF32DFF7630
:101860003F2E97FF09C090958095709561957F4FA9
:101870008F4F9F4F689437F82AE030E0A5010E940F
:101880005B0DC82ECA188C2C432C36FE0CC0E89475
:1018900040F8C91440F434FE05C032FC03C0F32DF7
:1018A000FE7E4F2E892C44FE95C0FE01EC0DF11DED
:1018B0008081803309F087C0242D297E422E842D1B
:1018C0008870582E43FC95C040FE8FC09C2C82141B
:1018D00018F42C0C922C981844FE91C0B70180E3A8
:1018E00090E00E942B0D42FE09C088E790E041FE87
:1018F00002C088E590E0B7010E942B0DC91408F4DE
:101900008AC0CA94D12C9FEFC91AD90ACA0CDB1C11
:10191000F60182916F01B70190E00E942B0DAC148B
:10192000BD04B1F74FCF60817181072E000C880B89
:10193000990B0E5F1F4F92CFD32CE894D4F82AE076
:1019400030E0853739F1232D297FD22E8F3601F1F2
:1019500048F48835A9F0F701868197812B96E2E15A
:101960000C94C909803749F08837A9F7D4FE02C022
:101970006894D2F820E130E00DC06894D4F8F6CF36
:1019800034FE03C0822F8660D82E20E132E002C0F0
:1019900028E030E0F801D7FE0FC0608171818281BC
:1019A00093810C5F1F4FA5010E945B0DC82ECA18C2
:1019B0003D2CE89437F867CF6081718190E080E03A
:1019C0000E5F1F4FF0CF42FC02C0839478CF839408
:1019D000839475CF842D867809F471CFF6CFB70143
:1019E00080E290E00E942B0D83948214C0F3512C6E
:1019F00073CF522C5818821408F46ECFF8CF842D70
:101A0000867809F47BCF8BE241FE80E247FC8DE2D1
:101A1000B70190E071CFB70180E390E00E942B0DF9
:101A20009A946CCF8FEF9FEF99CFFC010590615096
:101A300070400110D8F7809590958E0F9F1F0895E4
:101A4000FC016150704001900110D8F7809590958D
:101A50008E0F9F1F08950F931F93CF93DF93182F1F
:101A6000092FEB018B8181FD09C01FEF0FEF812F43
:101A7000902FDF91CF911F910F91089582FF14C095
:101A80002E813F818C819D81281739073CF4E881A4
:101A9000F981CF0101969983888310838E819F817C
:101AA00001969F838E83E3CFE885F985812F099581
:101AB000892BA1F3DACFFA01AA27283051F120317E
:101AC00081F1E8946F936E7F6E5F7F4F8F4F9F4FD2
:101AD000AF4FB1E03ED0B4E03CD0670F781F891F14
:101AE0009A1FA11D680F791F8A1F911DA11D6A0FE2
:101AF000711D811D911DA11D20D009F468943F9195
:101B00002AE0269F11243019305D3193DEF6CF0193
:101B10000895462F4770405D4193B3E00FD0C9F759
:101B2000F6CF462F4F70405D4A3318F0495D31FDC6
:101B30004052419302D0A9F7EACFB4E0A695979519
:101B4000879577956795BA95C9F7009761057105EF
:101B500008959B01AC010A2E069457954795379539
:101B60002795BA95C9F7620F731F841F951FA01D93
:061B70000895F894FFCF78
:101B76006300000054028000000001000200000023
:101B86000100020003000400050060616601707137
:101B96007602303136404146505156040005000663
:101BA60000000000004601A600D30093010401E2F4
:101BB60000F60025632530345800253032580000E1
:00000001FF
